{
  "contractName": "CrowdFundingContract",
  "abi": [
    {
      "inputs": [],
      "stateMutability": "nonpayable",
      "type": "constructor"
    },
    {
      "anonymous": false,
      "inputs": [
        {
          "indexed": false,
          "internalType": "uint256",
          "name": "campaignId",
          "type": "uint256"
        },
        {
          "indexed": false,
          "internalType": "string",
          "name": "name",
          "type": "string"
        },
        {
          "indexed": false,
          "internalType": "string",
          "name": "image",
          "type": "string"
        },
        {
          "indexed": false,
          "internalType": "uint256",
          "name": "targetAmt",
          "type": "uint256"
        },
        {
          "indexed": false,
          "internalType": "uint256",
          "name": "deadline",
          "type": "uint256"
        },
        {
          "indexed": false,
          "internalType": "string",
          "name": "location",
          "type": "string"
        },
        {
          "indexed": false,
          "internalType": "address",
          "name": "ownerId",
          "type": "address"
        },
        {
          "indexed": false,
          "internalType": "enum CrowdFundingContract.CampaignStatus",
          "name": "status",
          "type": "uint8"
        }
      ],
      "name": "CampaignCreated",
      "type": "event"
    },
    {
      "anonymous": false,
      "inputs": [
        {
          "indexed": false,
          "internalType": "uint256",
          "name": "campaignId",
          "type": "uint256"
        },
        {
          "indexed": false,
          "internalType": "uint256",
          "name": "amount",
          "type": "uint256"
        },
        {
          "indexed": false,
          "internalType": "address",
          "name": "donator",
          "type": "address"
        },
        {
          "indexed": false,
          "internalType": "uint256",
          "name": "totalAmountCollected",
          "type": "uint256"
        }
      ],
      "name": "CampaignFunded",
      "type": "event"
    },
    {
      "inputs": [
        {
          "internalType": "uint256",
          "name": "",
          "type": "uint256"
        }
      ],
      "name": "listOfCampaigns",
      "outputs": [
        {
          "internalType": "uint256",
          "name": "campaignId",
          "type": "uint256"
        },
        {
          "internalType": "string",
          "name": "name",
          "type": "string"
        },
        {
          "internalType": "string",
          "name": "image",
          "type": "string"
        },
        {
          "internalType": "uint256",
          "name": "targetAmt",
          "type": "uint256"
        },
        {
          "internalType": "uint256",
          "name": "deadline",
          "type": "uint256"
        },
        {
          "internalType": "string",
          "name": "location",
          "type": "string"
        },
        {
          "internalType": "uint256",
          "name": "amountCollected",
          "type": "uint256"
        },
        {
          "internalType": "enum CrowdFundingContract.CampaignStatus",
          "name": "status",
          "type": "uint8"
        }
      ],
      "stateMutability": "view",
      "type": "function"
    },
    {
      "inputs": [],
      "name": "getNoOfCampaigns",
      "outputs": [
        {
          "internalType": "uint256",
          "name": "",
          "type": "uint256"
        }
      ],
      "stateMutability": "view",
      "type": "function"
    },
    {
      "inputs": [
        {
          "internalType": "string",
          "name": "_name",
          "type": "string"
        },
        {
          "internalType": "string",
          "name": "_image",
          "type": "string"
        },
        {
          "internalType": "uint256",
          "name": "_targetAmt",
          "type": "uint256"
        },
        {
          "internalType": "uint256",
          "name": "_deadline",
          "type": "uint256"
        },
        {
          "internalType": "string",
          "name": "_location",
          "type": "string"
        }
      ],
      "name": "addCampaign",
      "outputs": [],
      "stateMutability": "nonpayable",
      "type": "function"
    },
    {
      "inputs": [
        {
          "internalType": "uint256",
          "name": "_campaignId",
          "type": "uint256"
        }
      ],
      "name": "fundCampaign",
      "outputs": [],
      "stateMutability": "payable",
      "type": "function"
    },
    {
      "inputs": [
        {
          "internalType": "uint256",
          "name": "_campaignId",
          "type": "uint256"
        }
      ],
      "name": "getDonators",
      "outputs": [
        {
          "internalType": "address[]",
          "name": "",
          "type": "address[]"
        }
      ],
      "stateMutability": "view",
      "type": "function"
    },
    {
      "inputs": [
        {
          "internalType": "uint256",
          "name": "_campaignId",
          "type": "uint256"
        }
      ],
      "name": "setCampaignCompleted",
      "outputs": [],
      "stateMutability": "nonpayable",
      "type": "function"
    },
    {
      "inputs": [
        {
          "internalType": "uint256",
          "name": "_campaignId",
          "type": "uint256"
        }
      ],
      "name": "getCampaignAvailability",
      "outputs": [
        {
          "internalType": "enum CrowdFundingContract.CampaignStatus",
          "name": "",
          "type": "uint8"
        }
      ],
      "stateMutability": "view",
      "type": "function"
    }
  ],
  "bytecode": "0x608060405234801561001057600080fd5b506000808190555061164e806100276000396000f3fe6080604052600436106100705760003560e01c80632d3296701161004e5780632d3296701461010657806337c9da0f146101435780635bb4e7241461016c57806392bd38bc146101b057610070565b80630f30e289146100755780630fa91fa91461009e578063161d3dd1146100db575b600080fd5b34801561008157600080fd5b5061009c60048036038101906100979190610b1e565b6101cc565b005b3480156100aa57600080fd5b506100c560048036038101906100c09190610b1e565b610265565b6040516100d29190610c3b565b60405180910390f35b3480156100e757600080fd5b506100f061035a565b6040516100fd9190610c6c565b60405180910390f35b34801561011257600080fd5b5061012d60048036038101906101289190610b1e565b610363565b60405161013a9190610cfe565b60405180910390f35b34801561014f57600080fd5b5061016a60048036038101906101659190610e5f565b6103e0565b005b34801561017857600080fd5b50610193600480360381019061018e9190610b1e565b6105c6565b6040516101a7989796959493929190610fad565b60405180910390f35b6101ca60048036038101906101c59190610b1e565b6107b3565b005b6000811180156101de57506000548111155b61021d576040517f08c379a00000000000000000000000000000000000000000000000000000000081526004016102149061108c565b60405180910390fd5b600060016000838152602001908152602001600020905060008160090160006101000a81548160ff0219169083600181111561025c5761025b610c87565b5b02179055505050565b606060008211801561027957506000548211155b6102b8576040517f08c379a00000000000000000000000000000000000000000000000000000000081526004016102af9061108c565b60405180910390fd5b6001600083815260200190815260200160002060070180548060200260200160405190810160405280929190818152602001828054801561034e57602002820191906000526020600020905b8160009054906101000a900473ffffffffffffffffffffffffffffffffffffffff1673ffffffffffffffffffffffffffffffffffffffff1681526020019060010190808311610304575b50505050509050919050565b60008054905090565b6000808211801561037657506000548211155b6103b5576040517f08c379a00000000000000000000000000000000000000000000000000000000081526004016103ac9061108c565b60405180910390fd5b6001600083815260200190815260200160002060090160009054906101000a900460ff169050919050565b428211610422576040517f08c379a0000000000000000000000000000000000000000000000000000000008152600401610419906110f8565b60405180910390fd5b61042a6109c5565b60608060405180610140016040528060005481526020018881526020018781526020018681526020018581526020018481526020016000815260200183815260200182815260200160018081111561048557610484610c87565b5b81525060016000805481526020019081526020016000206000820151816000015560208201518160010190816104bb9190611324565b5060408201518160020190816104d19190611324565b50606082015181600301556080820151816004015560a08201518160050190816104fb9190611324565b5060c0820151816006015560e08201518160070190805190602001906105229291906109e0565b50610100820151816008019080519060200190610540929190610a6a565b506101208201518160090160006101000a81548160ff0219169083600181111561056d5761056c610c87565b5b02179055509050507ff4a48f1b9a3400cf5db20209597a4259fe870b3e9394ba292d9dd1b1653344d360005488888888883360016040516105b5989796959493929190611405565b60405180910390a150505050505050565b60016020528060005260406000206000915090508060000154908060010180546105ef90611147565b80601f016020809104026020016040519081016040528092919081815260200182805461061b90611147565b80156106685780601f1061063d57610100808354040283529160200191610668565b820191906000526020600020905b81548152906001019060200180831161064b57829003601f168201915b50505050509080600201805461067d90611147565b80601f01602080910402602001604051908101604052809291908181526020018280546106a990611147565b80156106f65780601f106106cb576101008083540402835291602001916106f6565b820191906000526020600020905b8154815290600101906020018083116106d957829003601f168201915b50505050509080600301549080600401549080600501805461071790611147565b80601f016020809104026020016040519081016040528092919081815260200182805461074390611147565b80156107905780601f1061076557610100808354040283529160200191610790565b820191906000526020600020905b81548152906001019060200180831161077357829003601f168201915b5050505050908060060154908060090160009054906101000a900460ff16905088565b6000811180156107c557506000548111155b610804576040517f08c379a00000000000000000000000000000000000000000000000000000000081526004016107fb9061108c565b60405180910390fd5b600060016000838152602001908152602001600020905060018081111561082e5761082d610c87565b5b8160090160009054906101000a900460ff16600181111561085257610851610c87565b5b14610892576040517f08c379a0000000000000000000000000000000000000000000000000000000008152600401610889906114e4565b60405180910390fd5b600034116108d5576040517f08c379a00000000000000000000000000000000000000000000000000000000081526004016108cc90611550565b60405180910390fd5b348160060160008282546108e9919061159f565b9250508190555080600701339080600181540180825580915050600190039060005260206000200160009091909190916101000a81548173ffffffffffffffffffffffffffffffffffffffff021916908373ffffffffffffffffffffffffffffffffffffffff160217905550806008013490806001815401808255809150506001900390600052602060002001600090919091909150557f4e1309450709381f74abacb77262da4c123b0c4107035002da9d288a5d414e1f82343384600601546040516109b994939291906115d3565b60405180910390a15050565b60016000808282546109d7919061159f565b92505081905550565b828054828255906000526020600020908101928215610a59579160200282015b82811115610a585782518260006101000a81548173ffffffffffffffffffffffffffffffffffffffff021916908373ffffffffffffffffffffffffffffffffffffffff16021790555091602001919060010190610a00565b5b509050610a669190610ab7565b5090565b828054828255906000526020600020908101928215610aa6579160200282015b82811115610aa5578251825591602001919060010190610a8a565b5b509050610ab39190610ab7565b5090565b5b80821115610ad0576000816000905550600101610ab8565b5090565b6000604051905090565b600080fd5b600080fd5b6000819050919050565b610afb81610ae8565b8114610b0657600080fd5b50565b600081359050610b1881610af2565b92915050565b600060208284031215610b3457610b33610ade565b5b6000610b4284828501610b09565b91505092915050565b600081519050919050565b600082825260208201905092915050565b6000819050602082019050919050565b600073ffffffffffffffffffffffffffffffffffffffff82169050919050565b6000610ba282610b77565b9050919050565b610bb281610b97565b82525050565b6000610bc48383610ba9565b60208301905092915050565b6000602082019050919050565b6000610be882610b4b565b610bf28185610b56565b9350610bfd83610b67565b8060005b83811015610c2e578151610c158882610bb8565b9750610c2083610bd0565b925050600181019050610c01565b5085935050505092915050565b60006020820190508181036000830152610c558184610bdd565b905092915050565b610c6681610ae8565b82525050565b6000602082019050610c816000830184610c5d565b92915050565b7f4e487b7100000000000000000000000000000000000000000000000000000000600052602160045260246000fd5b60028110610cc757610cc6610c87565b5b50565b6000819050610cd882610cb6565b919050565b6000610ce882610cca565b9050919050565b610cf881610cdd565b82525050565b6000602082019050610d136000830184610cef565b92915050565b600080fd5b600080fd5b6000601f19601f8301169050919050565b7f4e487b7100000000000000000000000000000000000000000000000000000000600052604160045260246000fd5b610d6c82610d23565b810181811067ffffffffffffffff82111715610d8b57610d8a610d34565b5b80604052505050565b6000610d9e610ad4565b9050610daa8282610d63565b919050565b600067ffffffffffffffff821115610dca57610dc9610d34565b5b610dd382610d23565b9050602081019050919050565b82818337600083830152505050565b6000610e02610dfd84610daf565b610d94565b905082815260208101848484011115610e1e57610e1d610d1e565b5b610e29848285610de0565b509392505050565b600082601f830112610e4657610e45610d19565b5b8135610e56848260208601610def565b91505092915050565b600080600080600060a08688031215610e7b57610e7a610ade565b5b600086013567ffffffffffffffff811115610e9957610e98610ae3565b5b610ea588828901610e31565b955050602086013567ffffffffffffffff811115610ec657610ec5610ae3565b5b610ed288828901610e31565b9450506040610ee388828901610b09565b9350506060610ef488828901610b09565b925050608086013567ffffffffffffffff811115610f1557610f14610ae3565b5b610f2188828901610e31565b9150509295509295909350565b600081519050919050565b600082825260208201905092915050565b60005b83811015610f68578082015181840152602081019050610f4d565b60008484015250505050565b6000610f7f82610f2e565b610f898185610f39565b9350610f99818560208601610f4a565b610fa281610d23565b840191505092915050565b600061010082019050610fc3600083018b610c5d565b8181036020830152610fd5818a610f74565b90508181036040830152610fe98189610f74565b9050610ff86060830188610c5d565b6110056080830187610c5d565b81810360a08301526110178186610f74565b905061102660c0830185610c5d565b61103360e0830184610cef565b9998505050505050505050565b7f496e76616c69642063616d706169676e20494400000000000000000000000000600082015250565b6000611076601383610f39565b915061108182611040565b602082019050919050565b600060208201905081810360008301526110a581611069565b9050919050565b7f446561646c696e65206d75737420626520696e20746865206675747572650000600082015250565b60006110e2601e83610f39565b91506110ed826110ac565b602082019050919050565b60006020820190508181036000830152611111816110d5565b9050919050565b7f4e487b7100000000000000000000000000000000000000000000000000000000600052602260045260246000fd5b6000600282049050600182168061115f57607f821691505b60208210810361117257611171611118565b5b50919050565b60008190508160005260206000209050919050565b60006020601f8301049050919050565b600082821b905092915050565b6000600883026111da7fffffffffffffffffffffffffffffffffffffffffffffffffffffffffffffffff8261119d565b6111e4868361119d565b95508019841693508086168417925050509392505050565b6000819050919050565b600061122161121c61121784610ae8565b6111fc565b610ae8565b9050919050565b6000819050919050565b61123b83611206565b61124f61124782611228565b8484546111aa565b825550505050565b600090565b611264611257565b61126f818484611232565b505050565b5b818110156112935761128860008261125c565b600181019050611275565b5050565b601f8211156112d8576112a981611178565b6112b28461118d565b810160208510156112c1578190505b6112d56112cd8561118d565b830182611274565b50505b505050565b600082821c905092915050565b60006112fb600019846008026112dd565b1980831691505092915050565b600061131483836112ea565b9150826002028217905092915050565b61132d82610f2e565b67ffffffffffffffff81111561134657611345610d34565b5b6113508254611147565b61135b828285611297565b600060209050601f83116001811461138e576000841561137c578287015190505b6113868582611308565b8655506113ee565b601f19841661139c86611178565b60005b828110156113c45784890151825560018201915060208501945060208101905061139f565b868310156113e157848901516113dd601f8916826112ea565b8355505b6001600288020188555050505b505050505050565b6113ff81610b97565b82525050565b60006101008201905061141b600083018b610c5d565b818103602083015261142d818a610f74565b905081810360408301526114418189610f74565b90506114506060830188610c5d565b61145d6080830187610c5d565b81810360a083015261146f8186610f74565b905061147e60c08301856113f6565b61148b60e0830184610cef565b9998505050505050505050565b7f43616d706169676e206e6f7420696e2070726f67726573730000000000000000600082015250565b60006114ce601883610f39565b91506114d982611498565b602082019050919050565b600060208201905081810360008301526114fd816114c1565b9050919050565b7f496e76616c696420646f6e6174696f6e20616d6f756e74000000000000000000600082015250565b600061153a601783610f39565b915061154582611504565b602082019050919050565b600060208201905081810360008301526115698161152d565b9050919050565b7f4e487b7100000000000000000000000000000000000000000000000000000000600052601160045260246000fd5b60006115aa82610ae8565b91506115b583610ae8565b92508282019050808211156115cd576115cc611570565b5b92915050565b60006080820190506115e86000830187610c5d565b6115f56020830186610c5d565b61160260408301856113f6565b61160f6060830184610c5d565b9594505050505056fea2646970667358221220790190b3ae73bbbc43bbbfef76e48c0dcc5fce4193f754950ca99cc7a12d7d8164736f6c63430008120033",
  "immutableReferences": {},
  "source": "// SPDX-License-Identifier: MIT\r\npragma solidity ^0.8.18;\r\n\r\ncontract CrowdFundingContract {\r\n    enum CampaignStatus {Completed, Inprogress}\r\n\r\n    uint campaignCount;\r\n\r\n    // Constructor code is only run when the contract is created\r\n    constructor() {\r\n        campaignCount = 0;\r\n    }\r\n\r\n    // Declaring a structure CampaignDetails\r\n    struct CampaignDetails {\r\n        uint campaignId;\r\n        string name;\r\n        string image;\r\n        uint targetAmt;\r\n        uint deadline;\r\n        string location;\r\n        uint amountCollected;\r\n        address[] donators;\r\n        uint256[] donations;\r\n        CampaignStatus status;\r\n    }\r\n\r\n    mapping (uint => CampaignDetails) public listOfCampaigns;\r\n\r\n    function incrementCampaignCount() internal {\r\n        campaignCount += 1;\r\n    }\r\n\r\n    // Function to obtain the campaign count\r\n    function getNoOfCampaigns() public view returns (uint) {\r\n        return campaignCount;\r\n    }\r\n\r\n    event CampaignCreated(\r\n        uint campaignId,\r\n        string name,\r\n        string image,\r\n        uint targetAmt,\r\n        uint deadline,\r\n        string location,\r\n        address ownerId,\r\n        CampaignStatus status\r\n    );\r\n\r\n    // Function to add a campaign\r\n    function addCampaign(\r\n        string memory _name,\r\n        string memory _image,\r\n        uint _targetAmt,\r\n        uint _deadline,\r\n        string memory _location\r\n    ) public {\r\n        require(_deadline > block.timestamp, \"Deadline must be in the future\");\r\n        incrementCampaignCount();\r\n        // Initialize dynamic arrays separately\r\n        address[] memory emptyAddresses;\r\n        uint256[] memory emptyDonations;\r\n        listOfCampaigns[campaignCount] = CampaignDetails(\r\n            campaignCount,\r\n            _name,\r\n            _image,\r\n            _targetAmt,\r\n            _deadline,\r\n            _location,\r\n            0, // amountCollected initially 0\r\n            emptyAddresses, // empty array for donators\r\n            emptyDonations, // empty array for donations\r\n            CampaignStatus.Inprogress // initially set to Inprogress\r\n        );\r\n        emit CampaignCreated(\r\n            campaignCount,\r\n            _name,\r\n            _image,\r\n            _targetAmt,\r\n            _deadline,\r\n            _location,\r\n            msg.sender,\r\n            CampaignStatus.Inprogress\r\n        );\r\n    }\r\n\r\n    event CampaignFunded(\r\n        uint campaignId,\r\n        uint amount,\r\n        address donator,\r\n        uint totalAmountCollected\r\n    );\r\n\r\n    // Function to fund a campaign\r\n    function fundCampaign(uint _campaignId) public payable {\r\n        require(_campaignId > 0 && _campaignId <= campaignCount, \"Invalid campaign ID\");\r\n        CampaignDetails storage campaign = listOfCampaigns[_campaignId];\r\n        require(campaign.status == CampaignStatus.Inprogress, \"Campaign not in progress\");\r\n        require(msg.value > 0, \"Invalid donation amount\");\r\n\r\n        // Update campaign details\r\n        campaign.amountCollected += msg.value;\r\n        campaign.donators.push(msg.sender);\r\n        campaign.donations.push(msg.value);\r\n\r\n        emit CampaignFunded(_campaignId, msg.value, msg.sender, campaign.amountCollected);\r\n    }\r\n\r\n    function getDonators(uint _campaignId) public view returns (address[] memory) {\r\n        require(_campaignId > 0 && _campaignId <= campaignCount, \"Invalid campaign ID\");\r\n        return listOfCampaigns[_campaignId].donators;\r\n    }\r\n\r\n    // Function that sets the campaign status to Completed\r\n    function setCampaignCompleted(uint _campaignId) public {\r\n        require(_campaignId > 0 && _campaignId <= campaignCount, \"Invalid campaign ID\");\r\n        CampaignDetails storage campaign = listOfCampaigns[_campaignId];\r\n        campaign.status = CampaignStatus.Completed;\r\n    }\r\n\r\n    // Function to retrieve the current availability of the campaign\r\n    function getCampaignAvailability(uint _campaignId) public view returns(CampaignStatus) {\r\n        require(_campaignId > 0 && _campaignId <= campaignCount, \"Invalid campaign ID\");\r\n        return listOfCampaigns[_campaignId].status;\r\n    }\r\n}\r\n\r\n\r\n\r\n",
  "sourcePath": "C:\\Users\\22000993\\OneDrive - Republic Polytechnic\\Desktop\\C373\\Blockchain\\FYPProject\\contracts\\CrowdFunding.sol",
  "compiler": {
    "name": "solc",
    "version": "0.8.18+commit.87f61d96.Emscripten.clang"
  },
  "schemaVersion": "3.4.16",
  "updatedAt": "2024-05-14T06:33:02.700Z",
  "devdoc": {
    "kind": "dev",
    "methods": {},
    "version": 1
  },
  "userdoc": {
    "kind": "user",
    "methods": {},
    "version": 1
  }
}