{
  "contractName": "PetContract",
  "abi": [
    {
      "inputs": [],
      "stateMutability": "nonpayable",
      "type": "constructor"
    },
    {
      "anonymous": false,
      "inputs": [
        {
          "indexed": false,
          "internalType": "uint256",
          "name": "petId",
          "type": "uint256"
        },
        {
          "indexed": false,
          "internalType": "string",
          "name": "name",
          "type": "string"
        },
        {
          "indexed": false,
          "internalType": "string",
          "name": "picName",
          "type": "string"
        },
        {
          "indexed": false,
          "internalType": "string",
          "name": "age",
          "type": "string"
        },
        {
          "indexed": false,
          "internalType": "string",
          "name": "breed",
          "type": "string"
        },
        {
          "indexed": false,
          "internalType": "string",
          "name": "location",
          "type": "string"
        },
        {
          "indexed": false,
          "internalType": "uint256",
          "name": "price",
          "type": "uint256"
        },
        {
          "indexed": false,
          "internalType": "address",
          "name": "ownerId",
          "type": "address"
        },
        {
          "indexed": false,
          "internalType": "enum PetContract.PetStatus",
          "name": "status",
          "type": "uint8"
        }
      ],
      "name": "PetCreated",
      "type": "event"
    },
    {
      "anonymous": false,
      "inputs": [
        {
          "indexed": false,
          "internalType": "uint256",
          "name": "id",
          "type": "uint256"
        },
        {
          "indexed": false,
          "internalType": "string",
          "name": "name",
          "type": "string"
        },
        {
          "indexed": false,
          "internalType": "uint256",
          "name": "price",
          "type": "uint256"
        },
        {
          "indexed": false,
          "internalType": "address payable",
          "name": "owner",
          "type": "address"
        },
        {
          "indexed": false,
          "internalType": "enum PetContract.PetStatus",
          "name": "status",
          "type": "uint8"
        }
      ],
      "name": "PetPurchased",
      "type": "event"
    },
    {
      "inputs": [
        {
          "internalType": "uint256",
          "name": "",
          "type": "uint256"
        }
      ],
      "name": "listOfPets",
      "outputs": [
        {
          "internalType": "uint256",
          "name": "petId",
          "type": "uint256"
        },
        {
          "internalType": "string",
          "name": "name",
          "type": "string"
        },
        {
          "internalType": "string",
          "name": "picName",
          "type": "string"
        },
        {
          "internalType": "string",
          "name": "age",
          "type": "string"
        },
        {
          "internalType": "string",
          "name": "breed",
          "type": "string"
        },
        {
          "internalType": "string",
          "name": "location",
          "type": "string"
        },
        {
          "internalType": "uint256",
          "name": "price",
          "type": "uint256"
        },
        {
          "internalType": "address",
          "name": "ownerId",
          "type": "address"
        },
        {
          "internalType": "enum PetContract.PetStatus",
          "name": "status",
          "type": "uint8"
        }
      ],
      "stateMutability": "view",
      "type": "function",
      "constant": true
    },
    {
      "inputs": [],
      "name": "setPetSold",
      "outputs": [],
      "stateMutability": "nonpayable",
      "type": "function"
    },
    {
      "inputs": [],
      "name": "getCompanyName",
      "outputs": [
        {
          "internalType": "string",
          "name": "",
          "type": "string"
        }
      ],
      "stateMutability": "view",
      "type": "function",
      "constant": true
    },
    {
      "inputs": [],
      "name": "getPetAvailability",
      "outputs": [
        {
          "internalType": "enum PetContract.PetStatus",
          "name": "",
          "type": "uint8"
        }
      ],
      "stateMutability": "view",
      "type": "function",
      "constant": true
    },
    {
      "inputs": [],
      "name": "getNoOfPets",
      "outputs": [
        {
          "internalType": "uint256",
          "name": "",
          "type": "uint256"
        }
      ],
      "stateMutability": "view",
      "type": "function",
      "constant": true
    },
    {
      "inputs": [
        {
          "internalType": "string",
          "name": "_name",
          "type": "string"
        },
        {
          "internalType": "string",
          "name": "_picName",
          "type": "string"
        },
        {
          "internalType": "string",
          "name": "_age",
          "type": "string"
        },
        {
          "internalType": "string",
          "name": "_breed",
          "type": "string"
        },
        {
          "internalType": "string",
          "name": "_location",
          "type": "string"
        },
        {
          "internalType": "uint256",
          "name": "_price",
          "type": "uint256"
        }
      ],
      "name": "addPet",
      "outputs": [],
      "stateMutability": "nonpayable",
      "type": "function"
    },
    {
      "inputs": [
        {
          "internalType": "uint256",
          "name": "_id",
          "type": "uint256"
        }
      ],
      "name": "purchasePet",
      "outputs": [],
      "stateMutability": "payable",
      "type": "function",
      "payable": true
    }
  ],
  "bytecode": "0x60806040523480156200001157600080fd5b5060006001819055506001600260006101000a81548160ff0219169083600181111562000043576200004262000095565b5b02179055506040518060400160405280600f81526020017f506574652773205065742053686f700000000000000000000000000000000000815250600090816200008e91906200033e565b5062000425565b7f4e487b7100000000000000000000000000000000000000000000000000000000600052602160045260246000fd5b600081519050919050565b7f4e487b7100000000000000000000000000000000000000000000000000000000600052604160045260246000fd5b7f4e487b7100000000000000000000000000000000000000000000000000000000600052602260045260246000fd5b600060028204905060018216806200014657607f821691505b6020821081036200015c576200015b620000fe565b5b50919050565b60008190508160005260206000209050919050565b60006020601f8301049050919050565b600082821b905092915050565b600060088302620001c67fffffffffffffffffffffffffffffffffffffffffffffffffffffffffffffffff8262000187565b620001d2868362000187565b95508019841693508086168417925050509392505050565b6000819050919050565b6000819050919050565b60006200021f620002196200021384620001ea565b620001f4565b620001ea565b9050919050565b6000819050919050565b6200023b83620001fe565b620002536200024a8262000226565b84845462000194565b825550505050565b600090565b6200026a6200025b565b6200027781848462000230565b505050565b5b818110156200029f576200029360008262000260565b6001810190506200027d565b5050565b601f821115620002ee57620002b88162000162565b620002c38462000177565b81016020851015620002d3578190505b620002eb620002e28562000177565b8301826200027c565b50505b505050565b600082821c905092915050565b60006200031360001984600802620002f3565b1980831691505092915050565b60006200032e838362000300565b9150826002028217905092915050565b6200034982620000c4565b67ffffffffffffffff811115620003655762000364620000cf565b5b6200037182546200012d565b6200037e828285620002a3565b600060209050601f831160018114620003b65760008415620003a1578287015190505b620003ad858262000320565b8655506200041d565b601f198416620003c68662000162565b60005b82811015620003f057848901518255600182019150602085019450602081019050620003c9565b868310156200041057848901516200040c601f89168262000300565b8355505b6001600288020188555050505b505050505050565b6116fe80620004356000396000f3fe6080604052600436106100705760003560e01c8063a882c5d91161004e578063a882c5d9146100f4578063b99bec111461011f578063ca7f909614610164578063d5552fa31461018057610070565b80632ab2a87d1461007557806343cfbd65146100a05780634e55059e146100cb575b600080fd5b34801561008157600080fd5b5061008a610197565b6040516100979190610e5f565b60405180910390f35b3480156100ac57600080fd5b506100b56101ae565b6040516100c29190610f0a565b60405180910390f35b3480156100d757600080fd5b506100f260048036038101906100ed91906110ab565b610240565b005b34801561010057600080fd5b50610109610416565b60405161011691906111d3565b60405180910390f35b34801561012b57600080fd5b50610146600480360381019061014191906111ee565b610420565b60405161015b9998979695949392919061125c565b60405180910390f35b61017e600480360381019061017991906111ee565b610743565b005b34801561018c57600080fd5b50610195610da0565b005b6000600260009054906101000a900460ff16905090565b6060600080546101bd9061133b565b80601f01602080910402602001604051908101604052809291908181526020018280546101e99061133b565b80156102365780601f1061020b57610100808354040283529160200191610236565b820191906000526020600020905b81548152906001019060200180831161021957829003601f168201915b5050505050905090565b610248610dcd565b60405180610120016040528060015481526020018781526020018681526020018581526020018481526020018381526020018281526020013373ffffffffffffffffffffffffffffffffffffffff1681526020016001808111156102af576102ae610de8565b5b8152506003600060015481526020019081526020016000206000820151816000015560208201518160010190816102e69190611518565b5060408201518160020190816102fc9190611518565b5060608201518160030190816103129190611518565b5060808201518160040190816103289190611518565b5060a082015181600501908161033e9190611518565b5060c0820151816006015560e08201518160070160006101000a81548173ffffffffffffffffffffffffffffffffffffffff021916908373ffffffffffffffffffffffffffffffffffffffff1602179055506101008201518160070160146101000a81548160ff021916908360018111156103bc576103bb610de8565b5b02179055509050507fe81a0d4e60cdade694c77b9d3e34c6dfcfa78c4ee629ce36bbb6c00885e9b7026001548787878787873360016040516104069998979695949392919061125c565b60405180910390a1505050505050565b6000600154905090565b60036020528060005260406000206000915090508060000154908060010180546104499061133b565b80601f01602080910402602001604051908101604052809291908181526020018280546104759061133b565b80156104c25780601f10610497576101008083540402835291602001916104c2565b820191906000526020600020905b8154815290600101906020018083116104a557829003601f168201915b5050505050908060020180546104d79061133b565b80601f01602080910402602001604051908101604052809291908181526020018280546105039061133b565b80156105505780601f1061052557610100808354040283529160200191610550565b820191906000526020600020905b81548152906001019060200180831161053357829003601f168201915b5050505050908060030180546105659061133b565b80601f01602080910402602001604051908101604052809291908181526020018280546105919061133b565b80156105de5780601f106105b3576101008083540402835291602001916105de565b820191906000526020600020905b8154815290600101906020018083116105c157829003601f168201915b5050505050908060040180546105f39061133b565b80601f016020809104026020016040519081016040528092919081815260200182805461061f9061133b565b801561066c5780601f106106415761010080835404028352916020019161066c565b820191906000526020600020905b81548152906001019060200180831161064f57829003601f168201915b5050505050908060050180546106819061133b565b80601f01602080910402602001604051908101604052809291908181526020018280546106ad9061133b565b80156106fa5780601f106106cf576101008083540402835291602001916106fa565b820191906000526020600020905b8154815290600101906020018083116106dd57829003601f168201915b5050505050908060060154908060070160009054906101000a900473ffffffffffffffffffffffffffffffffffffffff16908060070160149054906101000a900460ff16905089565b600060036000838152602001908152602001600020604051806101200160405290816000820154815260200160018201805461077e9061133b565b80601f01602080910402602001604051908101604052809291908181526020018280546107aa9061133b565b80156107f75780601f106107cc576101008083540402835291602001916107f7565b820191906000526020600020905b8154815290600101906020018083116107da57829003601f168201915b505050505081526020016002820180546108109061133b565b80601f016020809104026020016040519081016040528092919081815260200182805461083c9061133b565b80156108895780601f1061085e57610100808354040283529160200191610889565b820191906000526020600020905b81548152906001019060200180831161086c57829003601f168201915b505050505081526020016003820180546108a29061133b565b80601f01602080910402602001604051908101604052809291908181526020018280546108ce9061133b565b801561091b5780601f106108f05761010080835404028352916020019161091b565b820191906000526020600020905b8154815290600101906020018083116108fe57829003601f168201915b505050505081526020016004820180546109349061133b565b80601f01602080910402602001604051908101604052809291908181526020018280546109609061133b565b80156109ad5780601f10610982576101008083540402835291602001916109ad565b820191906000526020600020905b81548152906001019060200180831161099057829003601f168201915b505050505081526020016005820180546109c69061133b565b80601f01602080910402602001604051908101604052809291908181526020018280546109f29061133b565b8015610a3f5780601f10610a1457610100808354040283529160200191610a3f565b820191906000526020600020905b815481529060010190602001808311610a2257829003601f168201915b50505050508152602001600682015481526020016007820160009054906101000a900473ffffffffffffffffffffffffffffffffffffffff1673ffffffffffffffffffffffffffffffffffffffff1673ffffffffffffffffffffffffffffffffffffffff1681526020016007820160149054906101000a900460ff166001811115610acd57610acc610de8565b5b6001811115610adf57610ade610de8565b5b81525050905060008160e00151905060008260000151118015610b085750600154826000015111155b610b1157600080fd5b8160c00151341015610b2257600080fd5b600180811115610b3557610b34610de8565b5b8261010001516001811115610b4d57610b4c610de8565b5b14610b5757600080fd5b3373ffffffffffffffffffffffffffffffffffffffff168173ffffffffffffffffffffffffffffffffffffffff1603610b8f57600080fd5b338260e0019073ffffffffffffffffffffffffffffffffffffffff16908173ffffffffffffffffffffffffffffffffffffffff168152505060008261010001906001811115610be157610be0610de8565b5b90816001811115610bf557610bf4610de8565b5b815250508160036000858152602001908152602001600020600082015181600001556020820151816001019081610c2c9190611518565b506040820151816002019081610c429190611518565b506060820151816003019081610c589190611518565b506080820151816004019081610c6e9190611518565b5060a0820151816005019081610c849190611518565b5060c0820151816006015560e08201518160070160006101000a81548173ffffffffffffffffffffffffffffffffffffffff021916908373ffffffffffffffffffffffffffffffffffffffff1602179055506101008201518160070160146101000a81548160ff02191690836001811115610d0257610d01610de8565b5b02179055509050508073ffffffffffffffffffffffffffffffffffffffff166108fc349081150290604051600060405180830381858888f19350505050158015610d50573d6000803e3d6000fd5b507f9d04bde50a3c30051afb33010f89932d7b8f3b7e0b09c2b30bbee2f223f7b6a260015483602001518460c00151336000604051610d9395949392919061160b565b60405180910390a1505050565b6000600260006101000a81548160ff02191690836001811115610dc657610dc5610de8565b5b0217905550565b6001806000828254610ddf9190611694565b92505081905550565b7f4e487b7100000000000000000000000000000000000000000000000000000000600052602160045260246000fd5b60028110610e2857610e27610de8565b5b50565b6000819050610e3982610e17565b919050565b6000610e4982610e2b565b9050919050565b610e5981610e3e565b82525050565b6000602082019050610e746000830184610e50565b92915050565b600081519050919050565b600082825260208201905092915050565b60005b83811015610eb4578082015181840152602081019050610e99565b60008484015250505050565b6000601f19601f8301169050919050565b6000610edc82610e7a565b610ee68185610e85565b9350610ef6818560208601610e96565b610eff81610ec0565b840191505092915050565b60006020820190508181036000830152610f248184610ed1565b905092915050565b6000604051905090565b600080fd5b600080fd5b600080fd5b600080fd5b7f4e487b7100000000000000000000000000000000000000000000000000000000600052604160045260246000fd5b610f8282610ec0565b810181811067ffffffffffffffff82111715610fa157610fa0610f4a565b5b80604052505050565b6000610fb4610f2c565b9050610fc08282610f79565b919050565b600067ffffffffffffffff821115610fe057610fdf610f4a565b5b610fe982610ec0565b9050602081019050919050565b82818337600083830152505050565b600061101861101384610fc5565b610faa565b90508281526020810184848401111561103457611033610f45565b5b61103f848285610ff6565b509392505050565b600082601f83011261105c5761105b610f40565b5b813561106c848260208601611005565b91505092915050565b6000819050919050565b61108881611075565b811461109357600080fd5b50565b6000813590506110a58161107f565b92915050565b60008060008060008060c087890312156110c8576110c7610f36565b5b600087013567ffffffffffffffff8111156110e6576110e5610f3b565b5b6110f289828a01611047565b965050602087013567ffffffffffffffff81111561111357611112610f3b565b5b61111f89828a01611047565b955050604087013567ffffffffffffffff8111156111405761113f610f3b565b5b61114c89828a01611047565b945050606087013567ffffffffffffffff81111561116d5761116c610f3b565b5b61117989828a01611047565b935050608087013567ffffffffffffffff81111561119a57611199610f3b565b5b6111a689828a01611047565b92505060a06111b789828a01611096565b9150509295509295509295565b6111cd81611075565b82525050565b60006020820190506111e860008301846111c4565b92915050565b60006020828403121561120457611203610f36565b5b600061121284828501611096565b91505092915050565b600073ffffffffffffffffffffffffffffffffffffffff82169050919050565b60006112468261121b565b9050919050565b6112568161123b565b82525050565b600061012082019050611272600083018c6111c4565b8181036020830152611284818b610ed1565b90508181036040830152611298818a610ed1565b905081810360608301526112ac8189610ed1565b905081810360808301526112c08188610ed1565b905081810360a08301526112d48187610ed1565b90506112e360c08301866111c4565b6112f060e083018561124d565b6112fe610100830184610e50565b9a9950505050505050505050565b7f4e487b7100000000000000000000000000000000000000000000000000000000600052602260045260246000fd5b6000600282049050600182168061135357607f821691505b6020821081036113665761136561130c565b5b50919050565b60008190508160005260206000209050919050565b60006020601f8301049050919050565b600082821b905092915050565b6000600883026113ce7fffffffffffffffffffffffffffffffffffffffffffffffffffffffffffffffff82611391565b6113d88683611391565b95508019841693508086168417925050509392505050565b6000819050919050565b600061141561141061140b84611075565b6113f0565b611075565b9050919050565b6000819050919050565b61142f836113fa565b61144361143b8261141c565b84845461139e565b825550505050565b600090565b61145861144b565b611463818484611426565b505050565b5b818110156114875761147c600082611450565b600181019050611469565b5050565b601f8211156114cc5761149d8161136c565b6114a684611381565b810160208510156114b5578190505b6114c96114c185611381565b830182611468565b50505b505050565b600082821c905092915050565b60006114ef600019846008026114d1565b1980831691505092915050565b600061150883836114de565b9150826002028217905092915050565b61152182610e7a565b67ffffffffffffffff81111561153a57611539610f4a565b5b611544825461133b565b61154f82828561148b565b600060209050601f8311600181146115825760008415611570578287015190505b61157a85826114fc565b8655506115e2565b601f1984166115908661136c565b60005b828110156115b857848901518255600182019150602085019450602081019050611593565b868310156115d557848901516115d1601f8916826114de565b8355505b6001600288020188555050505b505050505050565b60006115f58261121b565b9050919050565b611605816115ea565b82525050565b600060a08201905061162060008301886111c4565b81810360208301526116328187610ed1565b905061164160408301866111c4565b61164e60608301856115fc565b61165b6080830184610e50565b9695505050505050565b7f4e487b7100000000000000000000000000000000000000000000000000000000600052601160045260246000fd5b600061169f82611075565b91506116aa83611075565b92508282019050808211156116c2576116c1611665565b5b9291505056fea26469706673582212204157d26dfd5ba99860f3f5e163944667d1a54a57e9c2005c3770b224cba7271e64736f6c63430008120033",
  "immutableReferences": {},
  "source": "// SPDX-License-Identifier: MIT\r\npragma solidity ^0.8.18;\r\n\r\ncontract PetContract {\r\n    enum PetStatus {Sold, Available}\r\n    \r\n    string companyName;\r\n    uint petCount;\r\n    PetStatus currentPetStatus;\r\n\r\n    // Constructor code is only run when the contract is created\r\n    constructor() {\r\n        petCount=0;\r\n        currentPetStatus = PetStatus.Available;\r\n        companyName = \"Pete's Pet Shop\";\r\n    }\r\n\r\n    //function that sets the reading status to Sold.  \r\n    function setPetSold() public {\r\n        currentPetStatus = PetStatus.Sold;\r\n    }\r\n        \r\n    function getCompanyName() public view returns(string memory){\r\n        return companyName;\r\n    }\r\n\r\n    //a function to retrieve the current availability of the pet.\r\n    function getPetAvailability() public view returns(PetStatus) {\r\n        return currentPetStatus;\r\n    }\r\n    // Declaring a structure petDetails\r\n    struct PetDetails {\r\n        uint petId;\r\n        string name;\r\n        string picName;\r\n        string age;\r\n        string breed;\r\n        string location;\r\n        uint price;\r\n        address ownerId;\r\n        PetStatus status;\r\n   }\r\n\r\n    // Declaring a structure ownerDetails\r\n   struct  ownerDetails {\r\n        address ownerId;\r\n        string firstName;\r\n        string lastName;\r\n        string mobileNo;\r\n        string email;\r\n    }    \r\n\r\n    //PetDetails[] public listOfPets;\r\n    mapping (uint => PetDetails) public listOfPets;\r\n\r\n    //Write a function addPet with the relevant function parameters\r\n    //function addPet( string memory _name, string memory _picName,\r\n      //  string memory _age,  string memory _breed,  \r\n       // string memory _location,\r\n        //uint _price) public {\r\n        //incrementPetCount();\r\n        //listOfPets[petCount] = PetDetails(petCount, _name, _picName,\r\n       // _age, _breed,_location, _price, msg.sender, PetStatus.Available);\r\n        //incrementPetCount();\r\n    //}\r\n\r\n    function incrementPetCount() internal {\r\n        petCount += 1;\r\n    }\r\n    //Write a function getNoOfPets to obtain the petCount\r\n    function getNoOfPets() public view returns (uint) {\r\n        return petCount;\r\n    }\r\n        event PetCreated(\r\n        uint petId,\r\n        string name,\r\n        string picName,\r\n        string age,\r\n        string breed,\r\n        string location,\r\n        uint price,\r\n        address ownerId,\r\n        PetStatus status\r\n    );\r\n     //Write a function addPet with the relevant function parameters\r\n    function addPet( string memory _name, string memory _picName,\r\n        string memory _age,  string memory _breed,  \r\n        string memory _location,\r\n        uint _price) public {\r\n        incrementPetCount();\r\n        listOfPets[petCount] = PetDetails(petCount, _name, _picName,\r\n        _age, _breed,_location, _price, msg.sender, PetStatus.Available);\r\n        emit PetCreated(petCount, _name, _picName,\r\n        _age, _breed,_location, _price, msg.sender, PetStatus.Available);\r\n    }\r\n     event PetPurchased(\r\n        uint id,\r\n        string name,\r\n        uint price,\r\n        address payable owner,\r\n        PetStatus status\r\n    );\r\n\r\n    function purchasePet(uint _id) public payable {\r\n        // Fetch the product\r\n            PetDetails memory petInfo = listOfPets[_id];\r\n        // Fetch the owner\r\n        address payable seller = payable(petInfo.ownerId);\r\n        // Make sure the product has a valid id\r\n        require(petInfo.petId > 0 && petInfo.petId <= petCount);\r\n        // Require that there is enough Ether in the transaction\r\n        require(msg.value >= petInfo.price);\r\n        // Require that the product has not been purchased already\r\n        require(petInfo.status == PetStatus.Available);\r\n        // Require that the buyer is not the seller\r\n        require(seller != msg.sender);\r\n        // Transfer ownership to the buyer\r\n        petInfo.ownerId = payable(msg.sender);\r\n        // Mark as purchased\r\n        petInfo.status = PetStatus.Sold;\r\n        // Update the product\r\n        listOfPets[_id] = petInfo;\r\n        // Pay the seller by sending them Ether\r\n        payable(seller).transfer(msg.value);\r\n        emit PetPurchased(petCount, petInfo.name, petInfo.price, payable(msg.sender), PetStatus.Sold);\r\n        \r\n    }\r\n    \r\n    \r\n\r\n\r\n\r\n\r\n}",
  "sourcePath": "C:\\Users\\22000993\\OneDrive - Republic Polytechnic\\Desktop\\C373\\Blockchain\\PeteProjectMeta\\contracts\\PetContract.sol",
  "compiler": {
    "name": "solc",
    "version": "0.8.18+commit.87f61d96.Emscripten.clang"
  },
  "schemaVersion": "3.4.16",
  "updatedAt": "2024-05-07T10:07:27.451Z",
  "networkType": "ethereum",
  "devdoc": {
    "kind": "dev",
    "methods": {},
    "version": 1
  },
  "userdoc": {
    "kind": "user",
    "methods": {},
    "version": 1
  }
}